:1000000019C033C032C031C030C02FC032C72DC07C
:100010002CC02BC02AC029C028C071C726C025C04B
:1000200024C023C022C021C020C01FC01EC01DC0CC
:100030001CC01BC011241FBECFEFD4E0DEBFCDBF5C
:1000400011E0A0E0B1E0E0E5F1E102C005900D9221
:10005000A631B107D9F711E0A6E1B1E001C01D92C8
:10006000A137B107E1F7D3D571C8CACF4A99FECFFE
:1000700084EA80933401809135018D5F8093430140
:100080001092420110924101E0914201F0E0EC5CDB
:10009000FE4F808190E068E071E02CD880914101B2
:1000A00090914201E92FF0E0EC5CFE4F2081822725
:1000B000809341019F5F90934201209143019217E9
:1000C00018F390E068E071E015D80895009759F0B2
:1000D000FC012481222351F007968CD7009749F028
:1000E00021E030E008C02FEF3FEF05C020E030E016
:1000F00002C022E030E0C901089591E090933501FB
:1001000061E46093360180933701482F50E09A01F3
:1001100074E0220F331F7A95E1F7241B350BF901A8
:10012000EE5AFE4F89F0618340E4428380839483DA
:100130008AE090E096838583C901875A9E4F4AE002
:1001400050E060E070E02AD791DF81E0089593E00D
:100150009093350192E49093360180933701609338
:10016000380140933901482F50E09A01E4E0220F12
:10017000331FEA95E1F7241B350BF901EE5AFE4FC8
:1001800091F0918390E49283808381E084838AE07C
:1001900090E096838583C901875A9E4F4AE050E0DC
:1001A00060E070E0FBD662DF81E0089595E0909317
:1001B000350191E5909336018093370160933801C2
:1001C0007093390140933A0120933B01482F50E04E
:1001D0009A01F4E0220F331FFA95E1F7241B350B47
:1001E000F901EE5AFE4F91F0918390E4928380835F
:1001F00081E084838AE090E096838583C901875AF1
:100200009E4F4AE050E060E070E0C8D62FDF81E00A
:10021000089593E09093350193E490933601809391
:1002200037016093380170933901482F50E09A01EB
:10023000A4E0220F331FAA95E1F7241B350BF90127
:10024000EE5AFE4F91F0918390E49283808381E097
:1002500084838AE090E096838583C901875A9E4F04
:100260004AE050E060E070E099D600DF81E0089558
:1002700092E09093350194E4909336018093370196
:1002800060933801482F50E09A01B4E0220F331FE9
:10029000BA95E1F7241B350BF901EE5AFE4F91F0A8
:1002A000918390E49283808381E084838AE090E06C
:1002B00096838583C901875A9E4F4AE050E060E0EB
:1002C00070E06CD6D3DE81E0089592E09093350122
:1002D00095E4909336018093370160933801482F5D
:1002E00050E09A0164E0220F331F6A95E1F7241B66
:1002F000350BF901EE5AFE4F91F0918390E4928311
:10030000808381E084838AE090E096838583C901BD
:10031000875A9E4F4AE050E060E070E03FD6A6DE8C
:1003200081E00895FB0199E09093350126E4209344
:1003300036018093370180818093380181818093D9
:100340003901828180933A01838180933B018481CA
:1003500080933C01858180933D01868180933E019D
:10036000878180933F0183E591E02093530120E44E
:1003700020935401FC01129221E024832AE030E012
:100380003683258306964AE050E060E070E006D6AA
:100390006DDE81E0089592E09093350197E49093AB
:1003A00036018093370160933801482F50E09A015D
:1003B00074E0220F331F7A95E1F7241B350BF90106
:1003C000EE5AFE4F91F0918390E49283808381E016
:1003D00084838AE090E096838583C901875A9E4F83
:1003E0004AE050E060E070E0D9D540DE81E0089559
:1003F0000F9396E09093350199E5909336016093C1
:100400003701709338014093390120933A010093EA
:100410003B01482F50E09A01E4E0220F331FEA9598
:10042000E1F7241B350BF901EE5AFE4F91F0918351
:1004300090E49283808381E084838AE090E09683D5
:100440008583C901875A9E4F4AE050E060E070E022
:10045000A5D50CDE81E00F91089593E090933501CE
:100460009AE5909336016093370140933801482F05
:1004700050E09A01F4E0220F331FFA95E1F7241BB4
:10048000350BF901EE5AFE4F91F0918390E492837F
:10049000808381E084838AE090E096838583C9012C
:1004A000875A9E4F4AE050E060E070E077D5DEDD8D
:1004B00081E0089592E09093350190E690933601A3
:1004C00060933701482F50E09A01A4E0220F331FB8
:1004D000AA95E1F7241B350BF901EE5AFE4F91F076
:1004E000918390E49283808381E084838AE090E02A
:1004F00096838583C901875A9E4F4AE050E060E0A9
:1005000070E04CD5B3DD81E0089592E09093350121
:1005100093E69093360160933701482F50E09A019B
:10052000B4E0220F331FBA95E1F7241B350BF90114
:10053000EE5AFE4F91F0918390E49283808381E0A4
:1005400084838AE090E096838583C901875A9E4F11
:100550004AE050E060E070E021D588DD81E0089558
:1005600093E09093350195E69093360160933701BF
:1005700040933801482F50E09A0164E0220F331F66
:100580006A95E1F7241B350BF901EE5AFE4F91F005
:10059000918390E49283808381E084838AE090E079
:1005A00096838583C901875A9E4F4AE050E060E0F8
:1005B00070E0F4D45BDD81E0089592E09093350122
:1005C00096E690933601809337019093620180E420
:1005D0008093630181E080936101809365018AE0EB
:1005E00090E0909367018093660188E691E04AE08D
:1005F00050E060E070E0D2D439DD81E0089592E00F
:100600009093350198E6909336018093370190934B
:10061000620180E48093630181E0809361018093B3
:1006200065018AE090E0909367018093660188E617
:1006300091E04AE050E060E070E0B0D417DD81E086
:10064000089581E0809335019DE6909336011092E4
:1006500037019093620190E490936301809361016C
:10066000809365018AE090E0909367018093660132
:1006700088E691E04AE050E060E070E08FD4F6DC7C
:1006800081E0089592E0909335019EE690933601C3
:10069000809337019093620180E48093630181E04D
:1006A00080936101809365018AE090E090936701F7
:1006B0008093660188E691E04AE050E060E070E0F7
:1006C0006DD4D4DC81E0089594E09093350190E7F7
:1006D000909336016093370140933801209339019C
:1006E000482F50E09A0174E0220F331F7A95E1F70A
:1006F000241B350BF901EE5AFE4F91F0918390E4E3
:100700009283808381E084838AE090E0968385836E
:10071000C901875A9E4F4AE050E060E070E03ED445
:10072000A5DC81E0089592E09093350191E79093E4
:10073000360160933701482F50E09A01E4E0220F20
:10074000331FEA95E1F7241B350BF901EE5AFE4FF2
:1007500091F0918390E49283808381E084838AE0A6
:1007600090E096838583C901875A9E4F4AE050E006
:1007700060E070E013D47ADC81E0089592E0909319
:10078000350195E79093360160933701482F50E08B
:100790009A01F4E0220F331FFA95E1F7241B350B81
:1007A000F901EE5AFE4F91F0918390E49283808399
:1007B00081E084838AE090E096838583C901875A2B
:1007C0009E4F4AE050E060E070E0E8D34FDC81E00B
:1007D000089581E0809335018AE480933601109278
:1007E000370144DC81E0089591E0909335016BE49A
:1007F0006093360180933701482F50E09A01A4E0BE
:10080000220F331FAA95E1F7241B350BF901EE5A8D
:10081000FE4F89F0618340E44283808394838AE0C1
:1008200090E096838583C901875A9E4F4AE050E045
:1008300060E070E0B3D31ADC81E0089591E090931A
:1008400035016CE46093360180933701482F50E006
:100850009A01B4E0220F331FBA95E1F7241B350B40
:10086000F901EE5AFE4F89F0618340E442838083B0
:1008700094838AE090E096838583C901875A9E4FCE
:100880004AE050E060E070E089D3F0DB81E0089559
:1008900081E0809335019BE59093360110923701FA
:1008A0009093620190E4909363018093610180933F
:1008B00065018AE090E0909367018093660188E685
:1008C00091E04AE050E060E070E068D3CFDB81E087
:1008D000089592E0909335019DE4909336016093E2
:1008E0003701482F50E09A0164E0220F331F6A95C8
:1008F000E1F7241B350BF901EE5AFE4F91F091837D
:1009000090E49283808381E084838AE090E0968300
:100910008583C901875A9E4F4AE050E060E070E04D
:100920003DD3A4DB81E0089581E08093350195EC0F
:1009300090933601109237019CE49093620190E409
:100940009093630180936101809365018AE090E058
:10095000909367018093660188E691E04AE050E059
:1009600060E070E01BD382DB81E0089599E0909312
:1009700035019EE49093360180933701A8E3B1E0FE
:10098000862F972FFC0188E001900D928150E1F7AE
:100990006DDB81E0089599E0909335019FE4909399
:1009A000360180933701A8E3B1E0262F372FF901F4
:1009B00098E001900D929150E1F74115510519F120
:1009C000682F70E09B01E4E0220F331FEA95E1F706
:1009D000261B370BF901EE5AFE4F5683458330979D
:1009E00091F091E0918340E44283808394838AE094
:1009F00090E096838583C901875A9E4F4AE050E074
:100A000060E070E0CBD232DB81E00895AF92BF921C
:100A1000DF92EF92FF920F931F93DF93CF930F928A
:100A2000CDB7DEB7F82E5B018A0180E0A9E0DA2EAF
:100A3000F0E5EF2E0130110509F48068D092350100
:100A4000E0923601982F9F2990933701F50190810C
:100A500090933801918190933901928190933A015A
:100A6000938190933B01948190933C019581909365
:100A70003D01968190933E01978190933F01898338
:100A8000F5DA28E030E0A20EB31E8981803611F03D
:100A9000805E01C080E28983E9DA015010408981DB
:100AA0000115110539F680E090E00F90CF91DF91AC
:100AB0001F910F91FF90EF90DF90BF90AF9008953E
:100AC00080E391E008958093330181E008950895D3
:100AD000009709F451C0DC01119611968C91119781
:100AE00080933001B0933201A0933101803409F03A
:100AF00043C012962C91129730E0F90154E0EE0FAA
:100B0000FF1F5A95E1F7E21BF30BEE5AFE4F91815E
:100B100013968C911397981741F481E090E04281ED
:100B2000403429F480E090E002C081E090E0F901D7
:100B300044E0EE0FFF1F4A95E1F7E21BF30BEE5A7C
:100B4000FE4F84830097C1F414968C9114978731DB
:100B500030F4853130F48550833070F402C08F3129
:100B600059F4F901B4E0EE0FFF1FBA95E1F7E21B6B
:100B7000F30BEE5AFE4F14820895909116019923BB
:100B800071F4843A09F03FC08093170191E090938B
:100B9000160180932E0182E080932F010895209109
:100BA0002E019130C9F48093180132E03093160180
:100BB000482F4D5F40932F01282720932E01483165
:100BC00010F1843AD1F48093170180932E01309371
:100BD0002F01909316010895E92FF0E0E95EFE4F92
:100BE0008083822780932E0120912F01921740F05D
:100BF000882319F487E191E06BDF109216010895C4
:100C00009F5F909316010895549A5C9A08952F92CD
:100C10003F924F925F926F927F928F929F92AF928C
:100C2000BF92CF92DF92EF92FF920F931F93DF93C9
:100C3000CF93CDB7DEB728970FB6F894DEBF0FBEBF
:100C4000CDBFF894E1DF36D1A1D1109245011092C9
:100C500044011092470110924601109249011092EE
:100C6000480110924B0110924A0110927001789441
:100C700063E6E62EF12C5FE5C52ED12C8E010F5FC9
:100C80001F4F46E5A42EB12C32E5832E912C2DE486
:100C9000622E712C97E6492E512C8BE6282E312C92
:100CA00080914401909145018336910509F463C018
:100CB00084369105A8F482359105A9F18335910513
:100CC00038F40097D1F08D34910509F082C01BC033
:100CD0008635910599F18F35910509F07AC03CC0B0
:100CE0008B36910509F460C08F36910509F469C00F
:100CF0008736910509F06DC04BC01092700170925B
:100D000045016092440180917001882309F065C01B
:100D1000C8014AE050E060E070E040D15ADD9092B6
:100D2000450180924401C80165D1009709F455C07E
:100D300080E0E3D9B0924501A092440182E591E0C0
:100D4000C5D9009709F049C080E060E140E0FFD9D3
:100D5000D0924501C092440182E591E0B7D9009755
:100D6000E1F580E061E270E041E021E01FDAF0921D
:100D70004501E092440182E591E0A8D9009769F528
:100D800080E060E070E245DA509245014092440113
:100D900082E591E09BD9009701F580E062E495DA65
:100DA000309245012092440182E591E08FD900976D
:100DB000A1F480E019DD8FE690E0909345018093E7
:100DC000440182E591E082D9009739F481E0809373
:100DD0007001109245011092440180914801909158
:100DE0004901009721F08F37910581F406C08FE704
:100DF00090E0909349018093480180917001813087
:100E000049F480E060E071E0B1DDF1CF109249017A
:100E10001092480180914601909147018E389105CA
:100E200059F08F38910591F00097F1F48EE890E039
:100E300090934701809346015BD0009709F430CF2F
:100E40008FE890E0909347018093460188E091E01D
:100E50000FD190934D0180934C012FEF8F3F92075C
:100E600009F41ECF8ADEE2CF1092470110924601AC
:100E700017CF1F920F920FB60F9211248F9388E114
:100E80000FB6F89480936000109260000FBE8F91AF
:100E90000F900FBE0F901F9018959091C00095FF76
:100EA000FCCF8093C60080E090E008958091C6005A
:100EB00090E008951092C5008BE08093C40088E113
:100EC0008093C1008EE08093C200549A5C983A9A55
:100ED000429A3B9A439852985A98539A5B988FEF4C
:100EE00093E20197F1F700C000005B9A089508951E
:100EF0002091C00030E020783070C90108951F9221
:100F00000F920FB60F9211248F939F93AF93BF93BD
:100F100088E1809384008CEF8093850080914E015E
:100F200090914F01A0915001B09151010196A11DE6
:100F3000B11D80934E0190934F01A0935001B09347
:100F40005101BF91AF919F918F910F900FBE0F9064
:100F50001F901895EFE6F0E0808181608083E1E8E2
:100F6000F0E080818260808388E1809384008CEF50
:100F700080938500089520914E0130914F0140915A
:100F8000500150915101B901CA010895E3DF08955C
:100F9000EFE6F0E080818E7F80830895CF93DF932A
:100FA000EC014C835D836E837F83E5DF6883798307
:100FB0008A839B83DF91CF910895FC012081318149
:100FC000428153816481758186819781260F371F05
:100FD000481F591F20833183428353830895CF9341
:100FE000DF93EC01C8DF688379838A839B83DF9179
:100FF000CF910895CF93DF93EC01BDDF2881398134
:101000004A815B81621B730B840B950B6F5F7F4F73
:101010008F4F9F4FE1E0F0E02C813D814E815F8159
:10102000261737074807590710F0E0E0F0E0CF0136
:10103000DF91CF910895EF92FF920F931F93FC01E0
:10104000E480F5800681178180819181A281B3813E
:10105000E80EF91E0A1F1B1F8EDFE61AF70A080B9F
:10106000190BB701C8011F910F91FF90EF900895E0
:10107000CF93DF93EC013B8130FF36C036FF09C0D0
:101080003F7B3B838E819F8101969F838E832A8144
:1010900029C032FF0FC0E881F9818081992787FD3F
:1010A0009095009719F430623B831EC03196F98306
:1010B000E88311C0EA85FB85CE01099597FF0BC037
:1010C0002B813FEF8F3F930711F480E101C080E255
:1010D000822B8B8309C02E813F812F5F3F4F3F833F
:1010E0002E83282F30E002C02FEF3FEFC901DF91A0
:1010F000CF9108950F931F93CF93DF938C01EB0152
:101100008B8181FF1BC082FF0DC02E813F818C81AE
:101110009D812817390764F4E881F9810193F983E7
:10112000E88306C0E885F985802F0995009731F49A
:101130008E819F8101969F838E8302C00FEF1FEFE8
:10114000C801DF91CF911F910F910895F894FFCFBF
:101150000102030405060708000000030000000068
:061160004D0756070000D8
:00000001FF
